{
  "_format": "hh-sol-artifact-1",
  "contractName": "DigimonMarketplace",
  "sourceName": "contracts/DigimonMarketplace.sol",
  "abi": [
    {
      "anonymous": false,
      "inputs": [
        {
          "indexed": true,
          "internalType": "address",
          "name": "owner",
          "type": "address"
        },
        {
          "indexed": true,
          "internalType": "address",
          "name": "approved",
          "type": "address"
        },
        {
          "indexed": true,
          "internalType": "uint256",
          "name": "tokenId",
          "type": "uint256"
        }
      ],
      "name": "Approval",
      "type": "event"
    },
    {
      "anonymous": false,
      "inputs": [
        {
          "indexed": true,
          "internalType": "uint256",
          "name": "tokenId",
          "type": "uint256"
        },
        {
          "indexed": true,
          "internalType": "address",
          "name": "seller",
          "type": "address"
        },
        {
          "indexed": false,
          "internalType": "uint256",
          "name": "price",
          "type": "uint256"
        }
      ],
      "name": "NFTListed",
      "type": "event"
    },
    {
      "anonymous": false,
      "inputs": [
        {
          "indexed": true,
          "internalType": "uint256",
          "name": "tokenId",
          "type": "uint256"
        },
        {
          "indexed": true,
          "internalType": "address",
          "name": "buyer",
          "type": "address"
        },
        {
          "indexed": false,
          "internalType": "uint256",
          "name": "price",
          "type": "uint256"
        }
      ],
      "name": "NFTSold",
      "type": "event"
    },
    {
      "anonymous": false,
      "inputs": [
        {
          "indexed": true,
          "internalType": "address",
          "name": "from",
          "type": "address"
        },
        {
          "indexed": true,
          "internalType": "address",
          "name": "to",
          "type": "address"
        },
        {
          "indexed": true,
          "internalType": "uint256",
          "name": "tokenId",
          "type": "uint256"
        }
      ],
      "name": "Transfer",
      "type": "event"
    },
    {
      "inputs": [
        {
          "internalType": "address",
          "name": "to",
          "type": "address"
        },
        {
          "internalType": "uint256",
          "name": "tokenId",
          "type": "uint256"
        }
      ],
      "name": "approve",
      "outputs": [],
      "stateMutability": "nonpayable",
      "type": "function"
    },
    {
      "inputs": [
        {
          "internalType": "uint256",
          "name": "tokenId",
          "type": "uint256"
        }
      ],
      "name": "buyNFT",
      "outputs": [],
      "stateMutability": "payable",
      "type": "function"
    },
    {
      "inputs": [
        {
          "internalType": "address",
          "name": "owner",
          "type": "address"
        }
      ],
      "name": "getOwnedTokens",
      "outputs": [
        {
          "internalType": "uint256[]",
          "name": "",
          "type": "uint256[]"
        }
      ],
      "stateMutability": "view",
      "type": "function"
    },
    {
      "inputs": [
        {
          "internalType": "uint256",
          "name": "tokenId",
          "type": "uint256"
        }
      ],
      "name": "getTokenURI",
      "outputs": [
        {
          "internalType": "string",
          "name": "",
          "type": "string"
        }
      ],
      "stateMutability": "view",
      "type": "function"
    },
    {
      "inputs": [
        {
          "internalType": "uint256",
          "name": "tokenId",
          "type": "uint256"
        },
        {
          "internalType": "uint256",
          "name": "price",
          "type": "uint256"
        }
      ],
      "name": "listForSale",
      "outputs": [],
      "stateMutability": "nonpayable",
      "type": "function"
    },
    {
      "inputs": [
        {
          "internalType": "uint256",
          "name": "",
          "type": "uint256"
        }
      ],
      "name": "listings",
      "outputs": [
        {
          "internalType": "address",
          "name": "seller",
          "type": "address"
        },
        {
          "internalType": "uint256",
          "name": "price",
          "type": "uint256"
        }
      ],
      "stateMutability": "view",
      "type": "function"
    },
    {
      "inputs": [
        {
          "internalType": "string",
          "name": "tokenURI",
          "type": "string"
        }
      ],
      "name": "mintNFT",
      "outputs": [],
      "stateMutability": "nonpayable",
      "type": "function"
    },
    {
      "inputs": [
        {
          "internalType": "uint256",
          "name": "tokenId",
          "type": "uint256"
        }
      ],
      "name": "ownerOf",
      "outputs": [
        {
          "internalType": "address",
          "name": "",
          "type": "address"
        }
      ],
      "stateMutability": "view",
      "type": "function"
    },
    {
      "inputs": [
        {
          "internalType": "address",
          "name": "from",
          "type": "address"
        },
        {
          "internalType": "address",
          "name": "to",
          "type": "address"
        },
        {
          "internalType": "uint256",
          "name": "tokenId",
          "type": "uint256"
        }
      ],
      "name": "transferFrom",
      "outputs": [],
      "stateMutability": "nonpayable",
      "type": "function"
    }
  ],
  "bytecode": "0x6080604052348015600f57600080fd5b50611b678061001f6000396000f3fe6080604052600436106100865760003560e01c80636352211e116100595780636352211e14610136578063d9d6165514610173578063de74e57b146101b0578063e80d7fec146101ee578063fb37e8831461021757610086565b8063095ea7b31461008b57806323b872dd146100b45780633bb3a24d146100dd57806351ed82881461011a575b600080fd5b34801561009757600080fd5b506100b260048036038101906100ad9190611008565b610240565b005b3480156100c057600080fd5b506100db60048036038101906100d69190611048565b610397565b005b3480156100e957600080fd5b5061010460048036038101906100ff919061109b565b6105db565b6040516101119190611158565b60405180910390f35b610134600480360381019061012f919061109b565b610683565b005b34801561014257600080fd5b5061015d6004803603810190610158919061109b565b610889565b60405161016a9190611189565b60405180910390f35b34801561017f57600080fd5b5061019a600480360381019061019591906111a4565b6108c9565b6040516101a7919061128f565b60405180910390f35b3480156101bc57600080fd5b506101d760048036038101906101d2919061109b565b610960565b6040516101e59291906112c0565b60405180910390f35b3480156101fa57600080fd5b50610215600480360381019061021091906112e9565b6109a4565b005b34801561022357600080fd5b5061023e6004803603810190610239919061145e565b610b72565b005b803373ffffffffffffffffffffffffffffffffffffffff166001600083815260200190815260200160002060020160009054906101000a900473ffffffffffffffffffffffffffffffffffffffff1673ffffffffffffffffffffffffffffffffffffffff16146102e5576040517f08c379a00000000000000000000000000000000000000000000000000000000081526004016102dc906114f3565b60405180910390fd5b826002600084815260200190815260200160002060006101000a81548173ffffffffffffffffffffffffffffffffffffffff021916908373ffffffffffffffffffffffffffffffffffffffff160217905550818373ffffffffffffffffffffffffffffffffffffffff163373ffffffffffffffffffffffffffffffffffffffff167f8c5be1e5ebec7d5bd14f71427d1e84f3dd0314c0f7b2291e5b200ac8c7c3b92560405160405180910390a4505050565b6001600082815260200190815260200160002060020160009054906101000a900473ffffffffffffffffffffffffffffffffffffffff1673ffffffffffffffffffffffffffffffffffffffff168373ffffffffffffffffffffffffffffffffffffffff161461043b576040517f08c379a00000000000000000000000000000000000000000000000000000000081526004016104329061155f565b60405180910390fd5b8273ffffffffffffffffffffffffffffffffffffffff163373ffffffffffffffffffffffffffffffffffffffff1614806104d357506002600082815260200190815260200160002060009054906101000a900473ffffffffffffffffffffffffffffffffffffffff1673ffffffffffffffffffffffffffffffffffffffff163373ffffffffffffffffffffffffffffffffffffffff16145b610512576040517f08c379a0000000000000000000000000000000000000000000000000000000008152600401610509906115cb565b60405180910390fd5b61051c8382610cfe565b6105268282610ef6565b816001600083815260200190815260200160002060020160006101000a81548173ffffffffffffffffffffffffffffffffffffffff021916908373ffffffffffffffffffffffffffffffffffffffff160217905550808273ffffffffffffffffffffffffffffffffffffffff168473ffffffffffffffffffffffffffffffffffffffff167fddf252ad1be2c89b69c2b068fc378daa952ba7f163c4a11628f55a4df523b3ef60405160405180910390a4505050565b60606001600083815260200190815260200160002060010180546105fe9061161a565b80601f016020809104026020016040519081016040528092919081815260200182805461062a9061161a565b80156106775780601f1061064c57610100808354040283529160200191610677565b820191906000526020600020905b81548152906001019060200180831161065a57829003601f168201915b50505050509050919050565b6000600460008381526020019081526020016000206040518060400160405290816000820160009054906101000a900473ffffffffffffffffffffffffffffffffffffffff1673ffffffffffffffffffffffffffffffffffffffff1673ffffffffffffffffffffffffffffffffffffffff1681526020016001820154815250509050600081602001511161074c576040517f08c379a000000000000000000000000000000000000000000000000000000000815260040161074390611697565b60405180910390fd5b8060200151341015610793576040517f08c379a000000000000000000000000000000000000000000000000000000000815260040161078a90611703565b60405180910390fd5b806000015173ffffffffffffffffffffffffffffffffffffffff166108fc349081150290604051600060405180830381858888f193505050501580156107dd573d6000803e3d6000fd5b506107ed81600001513384610397565b60046000838152602001908152602001600020600080820160006101000a81549073ffffffffffffffffffffffffffffffffffffffff0219169055600182016000905550503373ffffffffffffffffffffffffffffffffffffffff16827f6329e40c0365262ebbff5ca819385c2b9713dcaa050ed07866d72c441395699a836020015160405161087d9190611723565b60405180910390a35050565b60006001600083815260200190815260200160002060020160009054906101000a900473ffffffffffffffffffffffffffffffffffffffff169050919050565b6060600360008373ffffffffffffffffffffffffffffffffffffffff1673ffffffffffffffffffffffffffffffffffffffff16815260200190815260200160002080548060200260200160405190810160405280929190818152602001828054801561095457602002820191906000526020600020905b815481526020019060010190808311610940575b50505050509050919050565b60046020528060005260406000206000915090508060000160009054906101000a900473ffffffffffffffffffffffffffffffffffffffff16908060010154905082565b813373ffffffffffffffffffffffffffffffffffffffff166001600083815260200190815260200160002060020160009054906101000a900473ffffffffffffffffffffffffffffffffffffffff1673ffffffffffffffffffffffffffffffffffffffff1614610a49576040517f08c379a0000000000000000000000000000000000000000000000000000000008152600401610a40906114f3565b60405180910390fd5b60008211610a8c576040517f08c379a0000000000000000000000000000000000000000000000000000000008152600401610a839061178a565b60405180910390fd5b60405180604001604052803373ffffffffffffffffffffffffffffffffffffffff168152602001838152506004600085815260200190815260200160002060008201518160000160006101000a81548173ffffffffffffffffffffffffffffffffffffffff021916908373ffffffffffffffffffffffffffffffffffffffff160217905550602082015181600101559050503373ffffffffffffffffffffffffffffffffffffffff16837f5f9c03de076f5063cd3ebcfe8ef7aa8af378e4b35a83c77ba9777e97083879a284604051610b659190611723565b60405180910390a3505050565b60008060008154610b82906117d9565b919050819055905060405180606001604052808281526020018381526020013373ffffffffffffffffffffffffffffffffffffffff1681525060016000838152602001908152602001600020600082015181600001556020820151816001019081610bed91906119cd565b5060408201518160020160006101000a81548173ffffffffffffffffffffffffffffffffffffffff021916908373ffffffffffffffffffffffffffffffffffffffff160217905550905050600360003373ffffffffffffffffffffffffffffffffffffffff1673ffffffffffffffffffffffffffffffffffffffff168152602001908152602001600020819080600181540180825580915050600190039060005260206000200160009091909190915055803373ffffffffffffffffffffffffffffffffffffffff16600073ffffffffffffffffffffffffffffffffffffffff167fddf252ad1be2c89b69c2b068fc378daa952ba7f163c4a11628f55a4df523b3ef60405160405180910390a45050565b6000600360008473ffffffffffffffffffffffffffffffffffffffff1673ffffffffffffffffffffffffffffffffffffffff16815260200190815260200160002080549050905060005b81811015610ef05782600360008673ffffffffffffffffffffffffffffffffffffffff1673ffffffffffffffffffffffffffffffffffffffff1681526020019081526020016000208281548110610da257610da1611a9f565b5b906000526020600020015403610ee357600360008573ffffffffffffffffffffffffffffffffffffffff1673ffffffffffffffffffffffffffffffffffffffff168152602001908152602001600020600183610dfe9190611ace565b81548110610e0f57610e0e611a9f565b5b9060005260206000200154600360008673ffffffffffffffffffffffffffffffffffffffff1673ffffffffffffffffffffffffffffffffffffffff1681526020019081526020016000208281548110610e6b57610e6a611a9f565b5b9060005260206000200181905550600360008573ffffffffffffffffffffffffffffffffffffffff1673ffffffffffffffffffffffffffffffffffffffff168152602001908152602001600020805480610ec857610ec7611b02565b5b60019003818190600052602060002001600090559055610ef0565b8080600101915050610d48565b50505050565b600360008373ffffffffffffffffffffffffffffffffffffffff1673ffffffffffffffffffffffffffffffffffffffff1681526020019081526020016000208190806001815401808255809150506001900390600052602060002001600090919091909150555050565b6000604051905090565b600080fd5b600080fd5b600073ffffffffffffffffffffffffffffffffffffffff82169050919050565b6000610f9f82610f74565b9050919050565b610faf81610f94565b8114610fba57600080fd5b50565b600081359050610fcc81610fa6565b92915050565b6000819050919050565b610fe581610fd2565b8114610ff057600080fd5b50565b60008135905061100281610fdc565b92915050565b6000806040838503121561101f5761101e610f6a565b5b600061102d85828601610fbd565b925050602061103e85828601610ff3565b9150509250929050565b60008060006060848603121561106157611060610f6a565b5b600061106f86828701610fbd565b935050602061108086828701610fbd565b925050604061109186828701610ff3565b9150509250925092565b6000602082840312156110b1576110b0610f6a565b5b60006110bf84828501610ff3565b91505092915050565b600081519050919050565b600082825260208201905092915050565b60005b838110156111025780820151818401526020810190506110e7565b60008484015250505050565b6000601f19601f8301169050919050565b600061112a826110c8565b61113481856110d3565b93506111448185602086016110e4565b61114d8161110e565b840191505092915050565b60006020820190508181036000830152611172818461111f565b905092915050565b61118381610f94565b82525050565b600060208201905061119e600083018461117a565b92915050565b6000602082840312156111ba576111b9610f6a565b5b60006111c884828501610fbd565b91505092915050565b600081519050919050565b600082825260208201905092915050565b6000819050602082019050919050565b61120681610fd2565b82525050565b600061121883836111fd565b60208301905092915050565b6000602082019050919050565b600061123c826111d1565b61124681856111dc565b9350611251836111ed565b8060005b83811015611282578151611269888261120c565b975061127483611224565b925050600181019050611255565b5085935050505092915050565b600060208201905081810360008301526112a98184611231565b905092915050565b6112ba81610fd2565b82525050565b60006040820190506112d5600083018561117a565b6112e260208301846112b1565b9392505050565b60008060408385031215611300576112ff610f6a565b5b600061130e85828601610ff3565b925050602061131f85828601610ff3565b9150509250929050565b600080fd5b600080fd5b7f4e487b7100000000000000000000000000000000000000000000000000000000600052604160045260246000fd5b61136b8261110e565b810181811067ffffffffffffffff8211171561138a57611389611333565b5b80604052505050565b600061139d610f60565b90506113a98282611362565b919050565b600067ffffffffffffffff8211156113c9576113c8611333565b5b6113d28261110e565b9050602081019050919050565b82818337600083830152505050565b60006114016113fc846113ae565b611393565b90508281526020810184848401111561141d5761141c61132e565b5b6114288482856113df565b509392505050565b600082601f83011261144557611444611329565b5b81356114558482602086016113ee565b91505092915050565b60006020828403121561147457611473610f6a565b5b600082013567ffffffffffffffff81111561149257611491610f6f565b5b61149e84828501611430565b91505092915050565b7f596f7520617265206e6f7420746865206f776e65720000000000000000000000600082015250565b60006114dd6015836110d3565b91506114e8826114a7565b602082019050919050565b6000602082019050818103600083015261150c816114d0565b9050919050565b7f496e76616c6964206f776e657200000000000000000000000000000000000000600082015250565b6000611549600d836110d3565b915061155482611513565b602082019050919050565b600060208201905081810360008301526115788161153c565b9050919050565b7f4e6f7420617574686f72697a6564000000000000000000000000000000000000600082015250565b60006115b5600e836110d3565b91506115c08261157f565b602082019050919050565b600060208201905081810360008301526115e4816115a8565b9050919050565b7f4e487b7100000000000000000000000000000000000000000000000000000000600052602260045260246000fd5b6000600282049050600182168061163257607f821691505b602082108103611645576116446115eb565b5b50919050565b7f4e4654206e6f7420666f722073616c6500000000000000000000000000000000600082015250565b60006116816010836110d3565b915061168c8261164b565b602082019050919050565b600060208201905081810360008301526116b081611674565b9050919050565b7f496e73756666696369656e74207061796d656e74000000000000000000000000600082015250565b60006116ed6014836110d3565b91506116f8826116b7565b602082019050919050565b6000602082019050818103600083015261171c816116e0565b9050919050565b600060208201905061173860008301846112b1565b92915050565b7f5072696365206d7573742062652067726561746572207468616e207a65726f00600082015250565b6000611774601f836110d3565b915061177f8261173e565b602082019050919050565b600060208201905081810360008301526117a381611767565b9050919050565b7f4e487b7100000000000000000000000000000000000000000000000000000000600052601160045260246000fd5b60006117e482610fd2565b91507fffffffffffffffffffffffffffffffffffffffffffffffffffffffffffffffff8203611816576118156117aa565b5b600182019050919050565b60008190508160005260206000209050919050565b60006020601f8301049050919050565b600082821b905092915050565b6000600883026118837fffffffffffffffffffffffffffffffffffffffffffffffffffffffffffffffff82611846565b61188d8683611846565b95508019841693508086168417925050509392505050565b6000819050919050565b60006118ca6118c56118c084610fd2565b6118a5565b610fd2565b9050919050565b6000819050919050565b6118e4836118af565b6118f86118f0826118d1565b848454611853565b825550505050565b600090565b61190d611900565b6119188184846118db565b505050565b5b8181101561193c57611931600082611905565b60018101905061191e565b5050565b601f8211156119815761195281611821565b61195b84611836565b8101602085101561196a578190505b61197e61197685611836565b83018261191d565b50505b505050565b600082821c905092915050565b60006119a460001984600802611986565b1980831691505092915050565b60006119bd8383611993565b9150826002028217905092915050565b6119d6826110c8565b67ffffffffffffffff8111156119ef576119ee611333565b5b6119f9825461161a565b611a04828285611940565b600060209050601f831160018114611a375760008415611a25578287015190505b611a2f85826119b1565b865550611a97565b601f198416611a4586611821565b60005b82811015611a6d57848901518255600182019150602085019450602081019050611a48565b86831015611a8a5784890151611a86601f891682611993565b8355505b6001600288020188555050505b505050505050565b7f4e487b7100000000000000000000000000000000000000000000000000000000600052603260045260246000fd5b6000611ad982610fd2565b9150611ae483610fd2565b9250828203905081811115611afc57611afb6117aa565b5b92915050565b7f4e487b7100000000000000000000000000000000000000000000000000000000600052603160045260246000fdfea264697066735822122094d7e6a7016ae47867c573b7f17fa5a5a6b1f45a12254391e5d4359e2f91f82b64736f6c634300081c0033",
  "linkReferences": {},
  "deployedLinkReferences": {}
}